{
  "_format": "hh-sol-artifact-1",
  "contractName": "TopSecret",
  "sourceName": "contracts/TopSecret.sol",
  "abi": [
    {
      "inputs": [],
      "stateMutability": "nonpayable",
      "type": "constructor"
    },
    {
      "inputs": [
        {
          "internalType": "string",
          "name": "_code",
          "type": "string"
        }
      ],
      "name": "addCode",
      "outputs": [],
      "stateMutability": "nonpayable",
      "type": "function"
    },
    {
      "inputs": [
        {
          "internalType": "address",
          "name": "_newOwner",
          "type": "address"
        },
        {
          "internalType": "string",
          "name": "name",
          "type": "string"
        }
      ],
      "name": "addOwner",
      "outputs": [],
      "stateMutability": "nonpayable",
      "type": "function"
    },
    {
      "inputs": [
        {
          "internalType": "string",
          "name": "codeEntry",
          "type": "string"
        },
        {
          "internalType": "string",
          "name": "teamName",
          "type": "string"
        }
      ],
      "name": "claimCode",
      "outputs": [],
      "stateMutability": "nonpayable",
      "type": "function"
    },
    {
      "inputs": [],
      "name": "getMessages",
      "outputs": [
        {
          "components": [
            {
              "internalType": "address",
              "name": "addrSender",
              "type": "address"
            },
            {
              "internalType": "string",
              "name": "msg",
              "type": "string"
            }
          ],
          "internalType": "struct TopSecret.Message[]",
          "name": "",
          "type": "tuple[]"
        }
      ],
      "stateMutability": "view",
      "type": "function"
    },
    {
      "inputs": [
        {
          "internalType": "address",
          "name": "_who",
          "type": "address"
        }
      ],
      "name": "getName",
      "outputs": [
        {
          "internalType": "string",
          "name": "",
          "type": "string"
        }
      ],
      "stateMutability": "view",
      "type": "function"
    },
    {
      "inputs": [
        {
          "internalType": "address",
          "name": "_owner",
          "type": "address"
        }
      ],
      "name": "isAddressOwner",
      "outputs": [
        {
          "internalType": "bool",
          "name": "",
          "type": "bool"
        }
      ],
      "stateMutability": "view",
      "type": "function"
    },
    {
      "inputs": [
        {
          "internalType": "address",
          "name": "_oldOwner",
          "type": "address"
        }
      ],
      "name": "removeOwner",
      "outputs": [],
      "stateMutability": "nonpayable",
      "type": "function"
    },
    {
      "inputs": [
        {
          "internalType": "string",
          "name": "_msg",
          "type": "string"
        }
      ],
      "name": "sendMessage",
      "outputs": [],
      "stateMutability": "nonpayable",
      "type": "function"
    }
  ],
  "bytecode": "0x60806040523480156200001157600080fd5b506040518060400160405280600c81526020017f4d722072656d697820696465000000000000000000000000000000000000000081525060016000735b38da6a701c568545dcfcb03fcb875f56beddc473ffffffffffffffffffffffffffffffffffffffff1673ffffffffffffffffffffffffffffffffffffffff1681526020019081526020016000209081620000a991906200060c565b506040518060400160405280600881526020017f4d7220456c69616e000000000000000000000000000000000000000000000000815250600160007311bf370f30d4e7ccee8a1482d41f766e3038319a73ffffffffffffffffffffffffffffffffffffffff1673ffffffffffffffffffffffffffffffffffffffff16815260200190815260200160002090816200014191906200060c565b506040518060400160405280600781526020017f466c6f7269616e0000000000000000000000000000000000000000000000000081525060016000733feaf839b1a670b7d0a589f4e4b1309a3e348f9273ffffffffffffffffffffffffffffffffffffffff1673ffffffffffffffffffffffffffffffffffffffff1681526020019081526020016000209081620001d991906200060c565b5060016002604051620001ec906200074e565b908152602001604051809103902060006101000a81548160ff021916908315150217905550600160026040516200022390620007b5565b908152602001604051809103902060006101000a81548160ff021916908315150217905550600160046000735b38da6a701c568545dcfcb03fcb875f56beddc473ffffffffffffffffffffffffffffffffffffffff1673ffffffffffffffffffffffffffffffffffffffff16815260200190815260200160002060006101000a81548160ff0219169083151502179055506001600460007311bf370f30d4e7ccee8a1482d41f766e3038319a73ffffffffffffffffffffffffffffffffffffffff1673ffffffffffffffffffffffffffffffffffffffff16815260200190815260200160002060006101000a81548160ff021916908315150217905550600160046000733feaf839b1a670b7d0a589f4e4b1309a3e348f9273ffffffffffffffffffffffffffffffffffffffff1673ffffffffffffffffffffffffffffffffffffffff16815260200190815260200160002060006101000a81548160ff021916908315150217905550620007cc565b600081519050919050565b7f4e487b7100000000000000000000000000000000000000000000000000000000600052604160045260246000fd5b7f4e487b7100000000000000000000000000000000000000000000000000000000600052602260045260246000fd5b600060028204905060018216806200041457607f821691505b6020821081036200042a5762000429620003cc565b5b50919050565b60008190508160005260206000209050919050565b60006020601f8301049050919050565b600082821b905092915050565b600060088302620004947fffffffffffffffffffffffffffffffffffffffffffffffffffffffffffffffff8262000455565b620004a0868362000455565b95508019841693508086168417925050509392505050565b6000819050919050565b6000819050919050565b6000620004ed620004e7620004e184620004b8565b620004c2565b620004b8565b9050919050565b6000819050919050565b6200050983620004cc565b620005216200051882620004f4565b84845462000462565b825550505050565b600090565b6200053862000529565b62000545818484620004fe565b505050565b5b818110156200056d57620005616000826200052e565b6001810190506200054b565b5050565b601f821115620005bc57620005868162000430565b620005918462000445565b81016020851015620005a1578190505b620005b9620005b08562000445565b8301826200054a565b50505b505050565b600082821c905092915050565b6000620005e160001984600802620005c1565b1980831691505092915050565b6000620005fc8383620005ce565b9150826002028217905092915050565b620006178262000392565b67ffffffffffffffff8111156200063357620006326200039d565b5b6200063f8254620003fb565b6200064c82828562000571565b600060209050601f8311600181146200068457600084156200066f578287015190505b6200067b8582620005ee565b865550620006eb565b601f198416620006948662000430565b60005b82811015620006be5784890151825560018201915060208501945060208101905062000697565b86831015620006de5784890151620006da601f891682620005ce565b8355505b6001600288020188555050505b505050505050565b600081905092915050565b7f48656c6c6f20576f726c64210000000000000000000000000000000000000000600082015250565b600062000736600c83620006f3565b91506200074382620006fe565b600c82019050919050565b60006200075b8262000727565b9150819050919050565b7f636f646500000000000000000000000000000000000000000000000000000000600082015250565b60006200079d600483620006f3565b9150620007aa8262000765565b600482019050919050565b6000620007c2826200078e565b9150819050919050565b61161d80620007dc6000396000f3fe608060405234801561001057600080fd5b50600436106100885760003560e01c8063469c81101161005b578063469c8110146101115780635fd4b08a1461012d5780635ff6cbf31461015d5780636ba2456e1461017b57610088565b8063173825d91461008d5780631c95d0b5146100a95780633511de41146100c55780633542758f146100f5575b600080fd5b6100a760048036038101906100a29190610a50565b610197565b005b6100c360048036038101906100be9190610bc3565b610284565b005b6100df60048036038101906100da9190610a50565b6103bc565b6040516100ec9190610c27565b60405180910390f35b61010f600480360381019061010a9190610c42565b610412565b005b61012b60048036038101906101269190610bc3565b61054d565b005b61014760048036038101906101429190610a50565b610697565b6040516101549190610d1d565b60405180910390f35b610165610768565b6040516101729190610e97565b60405180910390f35b61019560048036038101906101909190610eb9565b6108af565b005b600460003373ffffffffffffffffffffffffffffffffffffffff1673ffffffffffffffffffffffffffffffffffffffff16815260200190815260200160002060009054906101000a900460ff1615610246576000600460008373ffffffffffffffffffffffffffffffffffffffff1673ffffffffffffffffffffffffffffffffffffffff16815260200190815260200160002060006101000a81548160ff021916908315150217905550610281565b6040517f08c379a000000000000000000000000000000000000000000000000000000000815260040161027890610fa3565b60405180910390fd5b50565b600460003373ffffffffffffffffffffffffffffffffffffffff1673ffffffffffffffffffffffffffffffffffffffff16815260200190815260200160002060009054906101000a900460ff161561037e576002816040516102e69190610fff565b908152602001604051809103902060009054906101000a900460ff1615610342576040517f08c379a000000000000000000000000000000000000000000000000000000000815260040161033990611062565b60405180910390fd5b60016002826040516103549190610fff565b908152602001604051809103902060006101000a81548160ff0219169083151502179055506103b9565b6040517f08c379a00000000000000000000000000000000000000000000000000000000081526004016103b0906110ce565b60405180910390fd5b50565b6000600460008373ffffffffffffffffffffffffffffffffffffffff1673ffffffffffffffffffffffffffffffffffffffff16815260200190815260200160002060009054906101000a900460ff169050919050565b600460003373ffffffffffffffffffffffffffffffffffffffff1673ffffffffffffffffffffffffffffffffffffffff16815260200190815260200160002060009054906101000a900460ff161561050e576001600460008473ffffffffffffffffffffffffffffffffffffffff1673ffffffffffffffffffffffffffffffffffffffff16815260200190815260200160002060006101000a81548160ff02191690831515021790555080600160008473ffffffffffffffffffffffffffffffffffffffff1673ffffffffffffffffffffffffffffffffffffffff16815260200190815260200160002090816105089190611304565b50610549565b6040517f08c379a000000000000000000000000000000000000000000000000000000000815260040161054090611448565b60405180910390fd5b5050565b600460003373ffffffffffffffffffffffffffffffffffffffff1673ffffffffffffffffffffffffffffffffffffffff16815260200190815260200160002060009054906101000a900460ff161561065957600060405180604001604052803373ffffffffffffffffffffffffffffffffffffffff16815260200183815250908060018154018082558091505060019003906000526020600020906002020160009091909190915060008201518160000160006101000a81548173ffffffffffffffffffffffffffffffffffffffff021916908373ffffffffffffffffffffffffffffffffffffffff16021790555060208201518160010190816106519190611304565b505050610694565b6040517f08c379a000000000000000000000000000000000000000000000000000000000815260040161068b906114da565b60405180910390fd5b50565b6060600160008373ffffffffffffffffffffffffffffffffffffffff1673ffffffffffffffffffffffffffffffffffffffff16815260200190815260200160002080546106e39061111d565b80601f016020809104026020016040519081016040528092919081815260200182805461070f9061111d565b801561075c5780601f106107315761010080835404028352916020019161075c565b820191906000526020600020905b81548152906001019060200180831161073f57829003601f168201915b50505050509050919050565b60606000805480602002602001604051908101604052809291908181526020016000905b828210156108a657838290600052602060002090600202016040518060400160405290816000820160009054906101000a900473ffffffffffffffffffffffffffffffffffffffff1673ffffffffffffffffffffffffffffffffffffffff1673ffffffffffffffffffffffffffffffffffffffff1681526020016001820180546108159061111d565b80601f01602080910402602001604051908101604052809291908181526020018280546108419061111d565b801561088e5780601f106108635761010080835404028352916020019161088e565b820191906000526020600020905b81548152906001019060200180831161087157829003601f168201915b5050505050815250508152602001906001019061078c565b50505050905090565b6002826040516108bf9190610fff565b908152602001604051809103902060009054906101000a900460ff161561099f5760006002836040516108f29190610fff565b908152602001604051809103902060006101000a81548160ff02191690831515021790555060006003826040516109299190610fff565b908152602001604051809103902054146109755760038160405161094d9190610fff565b9081526020016040518091039020600081548092919061096c90611533565b91905055610999565b60016003826040516109879190610fff565b90815260200160405180910390208190555b506109da565b6040517f08c379a00000000000000000000000000000000000000000000000000000000081526004016109d1906115c7565b60405180910390fd5b5050565b6000604051905090565b600080fd5b600080fd5b600073ffffffffffffffffffffffffffffffffffffffff82169050919050565b6000610a1d826109f2565b9050919050565b610a2d81610a12565b8114610a3857600080fd5b50565b600081359050610a4a81610a24565b92915050565b600060208284031215610a6657610a656109e8565b5b6000610a7484828501610a3b565b91505092915050565b600080fd5b600080fd5b6000601f19601f8301169050919050565b7f4e487b7100000000000000000000000000000000000000000000000000000000600052604160045260246000fd5b610ad082610a87565b810181811067ffffffffffffffff82111715610aef57610aee610a98565b5b80604052505050565b6000610b026109de565b9050610b0e8282610ac7565b919050565b600067ffffffffffffffff821115610b2e57610b2d610a98565b5b610b3782610a87565b9050602081019050919050565b82818337600083830152505050565b6000610b66610b6184610b13565b610af8565b905082815260208101848484011115610b8257610b81610a82565b5b610b8d848285610b44565b509392505050565b600082601f830112610baa57610ba9610a7d565b5b8135610bba848260208601610b53565b91505092915050565b600060208284031215610bd957610bd86109e8565b5b600082013567ffffffffffffffff811115610bf757610bf66109ed565b5b610c0384828501610b95565b91505092915050565b60008115159050919050565b610c2181610c0c565b82525050565b6000602082019050610c3c6000830184610c18565b92915050565b60008060408385031215610c5957610c586109e8565b5b6000610c6785828601610a3b565b925050602083013567ffffffffffffffff811115610c8857610c876109ed565b5b610c9485828601610b95565b9150509250929050565b600081519050919050565b600082825260208201905092915050565b60005b83811015610cd8578082015181840152602081019050610cbd565b60008484015250505050565b6000610cef82610c9e565b610cf98185610ca9565b9350610d09818560208601610cba565b610d1281610a87565b840191505092915050565b60006020820190508181036000830152610d378184610ce4565b905092915050565b600081519050919050565b600082825260208201905092915050565b6000819050602082019050919050565b610d7481610a12565b82525050565b600082825260208201905092915050565b6000610d9682610c9e565b610da08185610d7a565b9350610db0818560208601610cba565b610db981610a87565b840191505092915050565b6000604083016000830151610ddc6000860182610d6b565b5060208301518482036020860152610df48282610d8b565b9150508091505092915050565b6000610e0d8383610dc4565b905092915050565b6000602082019050919050565b6000610e2d82610d3f565b610e378185610d4a565b935083602082028501610e4985610d5b565b8060005b85811015610e855784840389528151610e668582610e01565b9450610e7183610e15565b925060208a01995050600181019050610e4d565b50829750879550505050505092915050565b60006020820190508181036000830152610eb18184610e22565b905092915050565b60008060408385031215610ed057610ecf6109e8565b5b600083013567ffffffffffffffff811115610eee57610eed6109ed565b5b610efa85828601610b95565b925050602083013567ffffffffffffffff811115610f1b57610f1a6109ed565b5b610f2785828601610b95565b9150509250929050565b7f596f7520617265206e6f7420616c6c6f77656420746f2072656d6f7665206f7760008201527f6e65727300000000000000000000000000000000000000000000000000000000602082015250565b6000610f8d602483610ca9565b9150610f9882610f31565b604082019050919050565b60006020820190508181036000830152610fbc81610f80565b9050919050565b600081905092915050565b6000610fd982610c9e565b610fe38185610fc3565b9350610ff3818560208601610cba565b80840191505092915050565b600061100b8284610fce565b915081905092915050565b7f636f646520616c72656164792061637469766500000000000000000000000000600082015250565b600061104c601383610ca9565b915061105782611016565b602082019050919050565b6000602082019050818103600083015261107b8161103f565b9050919050565b7f596f7520617265206e6f7420616c6c6f77656420746f2061646420636f646573600082015250565b60006110b8602083610ca9565b91506110c382611082565b602082019050919050565b600060208201905081810360008301526110e7816110ab565b9050919050565b7f4e487b7100000000000000000000000000000000000000000000000000000000600052602260045260246000fd5b6000600282049050600182168061113557607f821691505b602082108103611148576111476110ee565b5b50919050565b60008190508160005260206000209050919050565b60006020601f8301049050919050565b600082821b905092915050565b6000600883026111b07fffffffffffffffffffffffffffffffffffffffffffffffffffffffffffffffff82611173565b6111ba8683611173565b95508019841693508086168417925050509392505050565b6000819050919050565b6000819050919050565b60006112016111fc6111f7846111d2565b6111dc565b6111d2565b9050919050565b6000819050919050565b61121b836111e6565b61122f61122782611208565b848454611180565b825550505050565b600090565b611244611237565b61124f818484611212565b505050565b5b818110156112735761126860008261123c565b600181019050611255565b5050565b601f8211156112b8576112898161114e565b61129284611163565b810160208510156112a1578190505b6112b56112ad85611163565b830182611254565b50505b505050565b600082821c905092915050565b60006112db600019846008026112bd565b1980831691505092915050565b60006112f483836112ca565b9150826002028217905092915050565b61130d82610c9e565b67ffffffffffffffff81111561132657611325610a98565b5b611330825461111d565b61133b828285611277565b600060209050601f83116001811461136e576000841561135c578287015190505b61136685826112e8565b8655506113ce565b601f19841661137c8661114e565b60005b828110156113a45784890151825560018201915060208501945060208101905061137f565b868310156113c157848901516113bd601f8916826112ca565b8355505b6001600288020188555050505b505050505050565b7f596f7520617265206e6f7420616c6c6f77656420746f20616464206f776e657260008201527f7300000000000000000000000000000000000000000000000000000000000000602082015250565b6000611432602183610ca9565b915061143d826113d6565b604082019050919050565b6000602082019050818103600083015261146181611425565b9050919050565b7f596f7520617265206e6f7420616c6c6f77656420746f2073656e64206d65737360008201527f6167657300000000000000000000000000000000000000000000000000000000602082015250565b60006114c4602483610ca9565b91506114cf82611468565b604082019050919050565b600060208201905081810360008301526114f3816114b7565b9050919050565b7f4e487b7100000000000000000000000000000000000000000000000000000000600052601160045260246000fd5b6000819050919050565b600061153e82611529565b91507f7fffffffffffffffffffffffffffffffffffffffffffffffffffffffffffffff82036115705761156f6114fa565b5b600182019050919050565b7f496e76616c696420636f64650000000000000000000000000000000000000000600082015250565b60006115b1600c83610ca9565b91506115bc8261157b565b602082019050919050565b600060208201905081810360008301526115e0816115a4565b905091905056fea2646970667358221220d2d7d1edf91211cd572ce3ecbcf2d3fde6f17d1f4075cd6f15429325a996aa2064736f6c63430008110033",
  "linkReferences": {},
  "deployedLinkReferences": {}
}